:020000040800F2
:1000000000500020F5200008511A0008571A000877
:100010005D1A0008631A0008691A00080000000051
:100020000000000000000000000000006F1A00083F
:100030003D21000800000000011F0008BD1E00084F
:100040003D2100083D2100083D2100083D21000818
:100050003D2100083D210008150C0008350C000862
:10006000550C0008750C0008950C00083D2100088F
:100070003D2100083D2100083D2100083D210008E8
:100080003D2100083D2100083D2100083D210008D8
:100090003D2100083D2100083D210008B50C000865
:1000A0003D2100083D2100083D2100083D210008B8
:1000B0003D2100083D2100083D2100083D210008A8
:1000C0003D2100083D2100083D210008CD20000809
:1000D000E12000083D260008352700082D280008EB
:1000E0005D0D00083D2100083D21000800000000D2
:1000F0000000000000000000000000000000000000
:0C01000000000000000000005FF808F1A3
:10010C000348044B834202D0034B03B1184770479A
:10011C00400400204004002000000000054806496F
:10012C000B1AD90F01EBA301491002D0034B03B1F9
:10013C0018477047400400204004002000000000D5
:10014C0010B5064C237843B9FFF7DAFF044B13B113
:10015C000448AFF300800123237010BD400400203D
:10016C00000000003829000808B5044B1BB10449F5
:10017C000448AFF30080BDE80840CFE70000000062
:10018C00440400203829000853B94AB9002908BF93
:10019C0000281CBF4FF0FF314FF0FF3000F076B954
:1001AC00ADF1080C6DE904CE00F006F8DDF804E0C2
:1001BC00DDE9022304B070472DE9F047089E0D4697
:1001CC0004468846002B4DD18A42944668D9B2FA2F
:1001DC0082F252B101FA02F3C2F1200120FA01F1CC
:1001EC000CFA02FC41EA030894404FEA1C41B8FBAC
:1001FC00F1F71FFA8CFE01FB178807FB0EF0230C9E
:10020C0043EA084398420AD91CEB030307F1FF3574
:10021C0080F01E81984240F21B81023F63441B1AFE
:10022C00B3FBF1F001FB103300FB0EFEA4B244EA69
:10023C000344A6450AD91CEB040400F1FF3380F0FB
:10024C000981A64540F20681644402380021A4EBE2
:10025C000E0440EA07401EB10023D440C6E9004317
:10026C00BDE8F0878B4208D9002E00F0EE8000210B
:10027C00C6E900050846BDE8F087B3FA83F100290A
:10028C004AD1AB4202D3824200F2FC80841A65EB65
:10029C00030301209846002EE2D0C6E90048DFE7B0
:1002AC0002B9FFDEB2FA82F2002A40F09180A1EB93
:1002BC000C0001214FEA1C471FFA8CFEB0FBF7F330
:1002CC0007FB1300250C45EA00450EFB03F0A84282
:1002DC0008D91CEB050503F1FF3802D2A84200F245
:1002EC00CE8043462D1AB5FBF7F007FB10550EFBDD
:1002FC0000FEA4B244EA0544A64508D91CEB04044C
:10030C0000F1FF3502D2A64500F2B6802846A4EBD8
:10031C000E0440EA03409EE7C1F120078B4022FA0D
:10032C0007FC4CEA030C25FA07FA4FEA1C49BAFB06
:10033C00F9F820FA07F309FB18AA8D401FFA8CFE76
:10034C001D4300FA01F308FB0EF02C0C44EA0A449E
:10035C00A04202FA01F20BD91CEB040408F1FF3A9B
:10036C0080F08880A04240F28580A8F102086444A5
:10037C00241AB4FBF9F009FB104400FB0EFEADB2DD
:10038C0045EA0444A64508D91CEB040400F1FF35EA
:10039C006CD2A6456AD90238644440EA0840A0FBF6
:1003AC000295A4EB0E04AC42C846AE4656D353D0CD
:1003BC00002E69D0B3EB080264EB0E0422FA01F3B1
:1003CC0004FA07F71F43CC40C6E90074002147E745
:1003DC000CFA02FCC2F1200125FA01F34FEA1C478A
:1003EC0020FA01F195400D43B3FBF7F107FB1133F4
:1003FC001FFA8CFE280C40EA034001FB0EF38342EB
:10040C0004FA02F408D91CEB000001F1FF382FD2DA
:10041C0083422DD902396044C01AB0FBF7F307FBB5
:10042C001300ADB245EA004503FB0EF0A84208D913
:10043C001CEB050503F1FF3816D2A84214D9023B78
:10044C006544281A43EA014138E73146304607E74C
:10045C002F46E4E61846F9E64B45A9D2B9EB02085B
:10046C0065EB0C0E0138A3E74346EAE7284694E710
:10047C004146D1E7D0467BE76444023847E7023B6C
:10048C0065442FE7084606E73146E9E6704700BFAA
:10049C00002301461A46184600F08CB838B5084BB4
:1004AC00084D5B1B9C1007D0043B1D44013C55F8C8
:1004BC0004399847002CF9D1BDE8384002F03CBA19
:1004CC00782900087429000870B50D4E0D4D761B67
:1004DC00B61006D0002455F8043B01349847A642C8
:1004EC00F9D1094E094D02F021FA761BB61006D04F
:1004FC00002455F8043B01349847A642F9D170BD4D
:10050C006C2900086C290008742900086C29000863
:10051C00830730B548D0541E002A3FD00346CAB2D8
:10052C0001E0013C3AD303F8012B9D07F9D1032CD0
:10053C002DD9CDB245EA05250F2C45EA054536D90E
:10054C00A4F1100222F00F0C03F1200EE6444FEA46
:10055C00121C03F1100242E9045542E90255103213
:10056C007245F8D10CF1010214F00C0F03EB0212DE
:10057C0004F00F0C13D0ACF1040323F00303043389
:10058C00134442F8045B9342FBD10CF003042CB1EE
:10059C00CAB21C4403F8012B9C42FBD130BD64460B
:1005AC001346002CF4D1F9E703461446BFE71A466C
:1005BC00A446E0E770B5174C2568D5F84841DCB186
:1005CC0065681F2D23DC80B14FF0010C04EB850E08
:1005DC00CEF88820D4F888610CFA05F2164302286C
:1005EC00C4F88861CEF808310BD06B1C02356360FF
:1005FC00002044F8251070BD05F5A674C5F84841D7
:10060C00DEE7D4F88C311343C4F88C31EDE74FF0AE
:10061C00FF3070BD6029000880B500AF00F01EF8F7
:10062C0000F003F800F0A8FAFAE780B500AF012259
:10063C000E21012000F0A6FD01220F21012000F067
:10064C00A1FD01220021012000F09CFD01220121CD
:10065C00012000F097FD00BF80BD000080B582B086
:10066C0000AF124A3B1D1268114619800233120C5E
:10067C001A707968012000F003FD0F233B71796833
:10068C00012000F0FDFC00233B717968012000F093
:10069C00F7FC01233B717968012000F0F1FC00F0BC
:1006AC007FFA00BF0837BD4680BD00BF5029000847
:1006BC0080B584B000AF78607B681B6883F30888D2
:1006CC007B6804331B68FB60FB68984700BF1037DE
:1006DC00BD4680BD80B500AF0121024801F0FEFE91
:1006EC0000BF80BD3004002080B582B000AF03464F
:1006FC00FB71FFF7EFFFFB799BB21946034801F042
:10070C00EDFE00BF0837BD4680BD00BF30040020A1
:10071C0080B500AF0221024801F0E0FE00BF80BDB1
:10072C003004002080B584B000AF0023FB600023B0
:10073C00BB6000F051FA0023FB7125E00023BB7174
:10074C0013E0FB791B4AD35C1A46BB79C3F1030354
:10075C00DB0002FA03F31A46BB681343BB60BB7998
:10076C000133BB71FB790133FB71BB79032B05D8CA
:10077C00FA79104B1B78033B9A42E2DBB86800F025
:10078C001BFAF8600023BB60FA790A4B1B78033B19
:10079C009A42D3DB074B1B78033B064A13441B6876
:1007AC00FA689A420CBF01230023DBB218461037BB
:1007BC00BD4680BD5C04002080B582B000AF7B23B9
:1007CC003B7100237B710023BB710320FFF78CFF6F
:1007DC003B1D03221946034801F0E0FC00BF08371B
:1007EC00BD4680BD3004002080B500AF0F4B9B7818
:1007FC001F2B15D90D4BDB785BB2002B10DB0B4B91
:10080C009B780A4AD2781146184600F09DFB0346A5
:10081C00002B02D1FFF75EFF05E0FFF779FF02E046
:10082C00FFF776FF00BF00BF80BD00BF5C04002057
:10083C0080B582B000AF074B7B600C20FFF754FFF4
:10084C000C227968044801F0A9FC00BF0837BD46AA
:10085C0080BD00BFE8F7FF1F3004002080B582B0D8
:10086C0000AF0A4A3B4692E8030018600433198033
:10087C000620FFF739FF3B4606221946044801F0D3
:10088C008DFC00BF0837BD4680BD00BF5429000851
:10089C003004002080B582B000AF0023FB71002330
:1008AC00BB71144801F05AFE0346DAB2124B1A70AF
:1008BC000123BB710BE00F4801F050FE03461A46B2
:1008CC00BB79D1B20C4AD154BB790133BB710A4B01
:1008DC001B78BA799A42EED9FFF724FF0346012B15
:1008EC0003D00723FB71FFF713FFFB79184608377A
:1008FC00BD4680BD300400205C04002080B5ADF501
:10090C00826D00AF002387F80F34514BDB7887F8EA
:10091C0005344F4B9B7887F80E340023C7F8083406
:10092C0007F58263A3F20C4300221A6004334FF4E0
:10093C007F7200211846FFF7EBFD002387F8073480
:10094C0097F80534FA2202FB03F3002B01DA03F2C9
:10095C00FF339B12DBB20133DAB297F80E34114637
:10096C00184600F0F1FA0346002B5FD1FFF7B2FEF8
:10097C0055E0FFF78FFF0346002B4ED1FFF7AAFE81
:10098C00012387F806343BE097F80624D7F808349F
:10099C00591CC7F808142E49895C07F58262A2F22B
:1009AC000C42D154D7F80834B3F5806F0DD097F8BA
:1009BC00072497F80534013B9A421CD197F806247A
:1009CC00234B1B78043B9A4215D13A1D97F80E34F1
:1009DC001146184600F0E5FA0346002B08D197F8AB
:1009EC000E34013387F80E340023C7F8083402E0C4
:1009FC00062387F80F3497F80634013387F806344A
:100A0C0097F80624124B1B78033B9A42BCDB97F8F1
:100A1C000734013387F8073401E0FFF779FE97F8C4
:100A2C00072497F805349A42A3D301E0FFF770FE30
:100A3C0097F80F34002B03D10021064800F0F9FA87
:100A4C0097F80F34184607F58267BD4680BD00BF86
:100A5C005C040020FC7F000880B582B000AF0C4B1A
:100A6C001B687B607B68B3F1006F09D97B68094A0E
:100A7C00934205D8FFF72EFE7868FFF719FE02E0C7
:100A8C00FFF746FE00BF00BF0837BD4680BD00BF64
:100A9C005E040020FFFF010880B582B000AF002388
:100AAC00FB71184B5B78013B062B23D801A252F843
:100ABC0023F000BFE30A0008E90A0008DD0A000879
:100ACC00EF0A0008F50A0008010B0008FB0A0008F1
:100ADC00FFF772FE11E0FFF7C1FE0EE0FFF7A8FE74
:100AEC000BE0FFF781FE08E0FFF708FF05E0FFF7DA
:100AFC00B3FF02E00823FB7100BFFB7918460837EF
:100B0C00BD4680BD5C04002080B582B000AF0023E0
:100B1C00FB710023BB71164801F020FD0346DAB2CD
:100B2C00144B1A700123BB710BE0114801F016FD38
:100B3C0003461A46BB79D1B20E4AD154BB79013364
:100B4C00BB710C4B1B78BA799A42EED9FFF7EAFDD0
:100B5C000346012B04D1FFF79FFF0346FB7101E015
:100B6C00FFF7D6FDFB7918460837BD4680BD00BFA0
:100B7C00300400205C04002080B500AF064B1B68DD
:100B8C00B3F1FF3F02D1FFF7BFFF02E00348FFF7CD
:100B9C008FFD00BF80BD00BFFC7F000800800008F7
:100BAC0080B500AF034801F015FB00F023F800BF3F
:100BBC0080BD00BF3004002080B483B000AF7860EB
:100BCC00044A7B681360034B1B6818460C37BD4600
:100BDC0080BC70470030024080B400AF044A936878
:100BEC0043F00103936000BFBD4680BC704700BF5B
:100BFC000030024080B500AF0121062000F0DEFD80
:100C0C00FFF7EAFF00BF80BD80B500AF044B1B6847
:100C1C009847044A536943F00103536100BF80BDF8
:100C2C005C0500200004014080B500AF044B5B68FC
:100C3C009847044A536943F00203536100BF80BDD7
:100C4C005C0500200004014080B500AF044B9B689C
:100C5C009847044A536943F00403536100BF80BDB5
:100C6C005C0500200004014080B500AF044BDB683C
:100C7C009847044A536943F00803536100BF80BD91
:100C8C005C0500200004014080B500AF044B1B69DB
:100C9C009847044A536943F01003536100BF80BD69
:100CAC005C0500200004014080B500AF264B5B6959
:100CBC00C3F34013DBB2002B07D0244B5B6998477E
:100CCC00214A536943F0200353611F4B5B69C3F303
:100CDC008013DBB2002B07D01C4B9B6998471A4A38
:100CEC00536943F040035361174B5B69C3F3C01363
:100CFC00DBB2002B07D0154BDB699847124A5369BE
:100D0C0043F080035361104B5B69C3F30023DBB2E8
:100D1C00002B07D00D4B1B6A98470B4A536943F4C1
:100D2C0080735361084B5B69C3F34023DBB2002B28
:100D3C0007D0064B5B6A9847034A536943F4007328
:100D4C00536100BF80BD00BF000401405C05002062
:100D5C0080B500AF264B5B69C3F38023DBB2002B5D
:100D6C0007D0244B5B699847214A536943F480634D
:100D7C0053611F4B5B69C3F30033DBB2002B07D00D
:100D8C001C4B9B6998471A4A536943F4805353612F
:100D9C00174B5B69C3F34033DBB2002B07D0154B09
:100DAC00DB699847124A536943F400535361104B63
:100DBC005B69C3F38033DBB2002B07D00D4B1B6A8E
:100DCC0098470B4A536943F480435361084B5B6962
:100DDC00C3F3C033DBB2002B07D0064B5B6A9847DA
:100DEC00034A536943F40043536100BF80BD00BF05
:100DFC00000401405C05002080B400AF044A136974
:100E0C0043F08003136100BFBD4680BC704700BF38
:100E1C000020024080B483B000AF0023FB710A4B6A
:100E2C000A4A5A60084B0A4A5A60074B1B69C3F3BB
:100E3C00C013DBB2002B01D00123FB71FB791846E8
:100E4C000C37BD4680BC704700200240230167452B
:100E5C00AB89EFCD80B485B000AF78600023FB7315
:100E6C0000BF214BDB68C3F30003DBB2002BF8D1CE
:100E7C001D4A136943F0020313611B4A7B685361DB
:100E8C00194A136943F04003136100BF164BDB682A
:100E9C00C3F30003DBB2002BF8D1134BDB68C3F3B5
:100EAC008003DBB2002B06D10F4BDB68C3F30013BE
:100EBC00DBB2002B0CD00C4AD36843F00403D36094
:100ECC00094AD36843F01003D3600123FB7304E099
:100EDC00054A13696FF341031361FB7B1846143702
:100EEC00BD4680BC704700BF0020024080B485B076
:100EFC0000AF78600B467B800023FB73114A1369AB
:100F0C0043F0010313617B687A881A8000BF0D4B94
:100F1C00DB68C3F30003DBB2002BF8D17B681B88C2
:100F2C009BB27A889A4201D00123FB73054A13695C
:100F3C006FF300031361FB7B18461437BD4680BC6E
:100F4C00704700BF0020024080B584B000AF03465C
:100F5C000A46FB711346BB710023FB73FB7903F547
:100F6C0000339B02BB60FFF755FF0346FB730BE09E
:100F7C00B868FFF76FFF0346FB73BB6803F580632C
:100F8C00BB60BB79013BBB71BB79002B02D0FB7BF7
:100F9C00002BEDD0FFF730FFFB7B18461037BD461A
:100FAC0080BD80B584B000AF03463960FB7100236F
:100FBC00FB8100237B73FB7903F500339B02BB6041
:100FCC00FFF728FF03467B730023FB8122E0FB899C
:100FDC009B003A6813441B689BB21946B868FFF72C
:100FEC0085FF03467B737B7B002B1AD1BB68981C57
:100FFC00FB899B003A6813441B681B0C9BB2194677
:10100C00FFF774FF03467B73FB890133FB81BB68DD
:10101C000433BB60FB89FF2B04D87B7B002BD6D021
:10102C0000E000BFFFF7E8FE7B7B18461037BD469B
:10103C0080BD80B584B000AF786039600023FB734D
:10104C00FFF7E8FE0346002B13D13B689BB2194611
:10105C007868FFF74BFF0346002B0AD17B689A1C7C
:10106C003B681B0C9BB219461046FFF73FFF03462B
:10107C00FB73FFF7C1FEFB7B18461037BD4680BDE6
:10108C0080B584B000AF03463960FB710023FB6070
:10109C000023BB60FB79032B26D801A252F823F066
:1010AC00BD100008CB100008D9100008E71000088C
:1010BC000121222000F082FB2E4BFB6014E0012169
:1010CC00232000F07BFB2C4BFB600DE00121242046
:1010DC0000F074FB294BFB6006E00121252000F099
:1010EC006DFB274BFB6000BF3B78072B02D8FB68DE
:1010FC00BB6006E03B78083BDBB23B70FB6804331B
:10110C00BB607B780F2B0CD1FB68DB683A781146FF
:10111C0001228A40D2431A40FB68DA6008237B70B4
:10112C000BE07B78082B08D1FB68DB683A7811461A
:10113C0001228A401A43FB68DA60BB681A683B7864
:10114C009B000F2101FA03F3DB431A40BB681A60C2
:10115C00BB681A68B9787B780B43DBB219463B78CD
:10116C009B0001FA03F31A43BB681A6000BF1037E7
:10117C00BD4680BD00080140000C0140001001403C
:10118C000014014080B485B000AF0346FB710B46E0
:10119C00BB7113467B710023FB60FB79032B17D8C3
:1011AC0001A252F823F000BFC5110008CB110008B2
:1011BC00D1110008D7110008104BFB6008E0104B50
:1011CC00FB6005E00F4BFB6002E00F4BFB6000BFC8
:1011DC007B79012B05D1BB79012202FA03F31A4664
:1011EC0005E0BB791033012202FA03F31A46FB68BF
:1011FC001A6100BF1437BD4680BC7047000801401F
:10120C00000C0140001001400014014090B482B069
:10121C0000AF03460A46FB711346BB71BB79012B29
:10122C0013D1164AFB795B09D8B2034652F8233026
:10123C00FA7902F01F02012101FA02F214460F4A58
:10124C000146234342F8213013E00C4AFB795B0939
:10125C00D8B20346203352F82330FA7902F01F0239
:10126C00012101FA02F205491A4300F1200341F869
:10127C00232000BF0837BD4690BC704700E100E05A
:10128C0080B485B000AF786039600123FB737B6854
:10129C001B78072B1DD87B6893F9023001335A4217
:1012AC0003F0070302F0070258BF53425AB27B689F
:1012BC009A707B6893F902307A689B0013443A6801
:1012CC00C3F803207B681B780133DAB27B681A7091
:1012DC0001E00023FB73FB7B18461437BD4680BC32
:1012EC00704780B485B000AF786039600123FB7320
:1012FC007B681B78002B1ED07B6893F901307A68D1
:10130C009B001344D3F803203B681A607B6893F965
:10131C00013001335A4203F0070302F0070258BFB1
:10132C0053425AB27B685A707B681B78013BDAB225
:10133C007B681A7001E00223FB73FB7B18461437A1
:10134C00BD4680BC704700002DE9F04F99B000AF4E
:10135C00964A4FF00003C7E91623954BDB6A1B092D
:10136C0003F00F03013300221846114602460B46C8
:10137C00D7E91601FEF708FF02460B46C7E916230C
:10138C008B4BDB6A1B0A03F00F03073B082B00F2A5
:10139C00048101A252F823F0C9130008F7130008C6
:1013AC003714000881140008C5140008071500083C
:1013BC00A7150008411500085B150008D7E916456C
:1013CC0022462B464FF000004FF00001D90041EAB5
:1013DC005271D00002460B46111939656B417B6581
:1013EC00D7E91434C7E91634D8E0D7E916452246B4
:1013FC002B464FF000004FF00001990041EA92712A
:10140C00900002460B461119B9646B41FB64D7E995
:10141C0012120B46DB183B64134642EB03037B644E
:10142C00D7E91034C7E91634B8E0D7E916010246FB
:10143C000B469418BC635B41FB63D7E90E2312EB9C
:10144C00000A43EB010B4FF000024FF000034FEA90
:10145C008B0343EA9A734FEA8A0292469B46BAEB95
:10146C0000033B636BEB01037B63D7E90C34C7E9E7
:10147C00163493E0D7E9160102460B469418BC6269
:10148C005B41FB62D7E90A2314183C624B417B6237
:10149C004FF000024FF00003D7E9084529468B00B6
:1014AC0020462946044643EA947301468A001C46AA
:1014BC001346C7E9163471E0D7E9160102460B460C
:1014CC009618BE615B41FB61D7E90623141843EB08
:1014DC0001054FF000024FF00003AB0043EA947398
:1014EC00A20014461D4623183B6145EB01037B61AA
:1014FC00D7E90434C7E9163450E0D7E9164522463B
:10150C002B464FF000004FF00001D90041EA527118
:10151C00D00002460B46B2EB040863EB050918EB4E
:10152C000803BB6049EB0903FB60D7E90289C7E9F3
:10153C00168933E0D7E916014FF000024FF0000393
:10154C000B0143EA10730201C7E9162326E0D7E921
:10155C00164522462B464FF000004FF00001990033
:10156C0041EA9271900002460B46111939606B41A9
:10157C007B604FF000024FF00003D7E9004529468D
:10158C008B0020462946044643EA947301468A00A0
:10159C001C461346C7E9163400E000BFD7E91623F2
:1015AC00104619466437BD46BDE8F08F001BB700E6
:1015BC00001002402DE9F04F8DB000AF4FF000024B
:1015CC004FF00003C7E90A23794B5B68C3F3004370
:1015DC00DBB2002B23D0764BDB6AC3F30043DBB2C8
:1015EC00002B04D0FFF7B0FEC7E90A0104E0714AF2
:1015FC004FF00003C7E90A236D4BDB6A03F00F03BE
:10160C00013300223B627A62D7E90823D7E90A0149
:10161C00FEF7BAFD02460B46C7E90A2304E0664A08
:10162C004FF00003C7E90A23614B5B689B0C03F086
:10163C000F03023B0B2B00F2B18001A252F823F0F6
:10164C007D16000897160008C5160008F31600084A
:10165C00231700083D170008A9170008A917000850
:10166C00A9170008A9170008A91700086717000890
:10167C00D7E90A014FF000024FF000038B0043EA58
:10168C0090738200C7E90A2389E0D7E90A4522460C
:10169C002B464FF000004FF00001990041EA927187
:1016AC00900002460B461119B9616B41FB61D7E9F9
:1016BC000634C7E90A3472E0D7E90A0102460B4640
:1016CC0096183E615B417B61D7E90423141843EB08
:1016DC0001052319BB6045EB0503FB60D7E9024507
:1016EC00C7E90A455BE0D7E90A4522462B464FF08D
:1016FC0000004FF00001D90041EA5271D0000246BF
:10170C000B46111B396063EB05037B60D7E9003492
:10171C00C7E90A3443E0D7E90A014FF000024FF061
:10172C000003CB0043EA5073C200C7E90A2336E03A
:10173C00D7E90A4522462B464FF000004FF0000136
:10174C00D90041EA5271D00002460B4612EB040A52
:10175C0043EB050BC7E90AAB21E0D7E90A45224662
:10176C002B464FF000004FF00001990141EA9261C5
:10177C00900102460B4612EB040843EB0509C7E93E
:10178C000A89D7E90A014FF00A024FF00003FEF76D
:10179C00FBFC02460B46C7E90A2300E000BFD7E971
:1017AC000A23104619463437BD46BDE8F08F00BFFA
:1017BC0000100240001BB70000093D0080B483B04C
:1017CC0000AF03460A46FB711346BB71BB79012B74
:1017DC0032D1FB795B09DBB2022B20D0022B61DC0E
:1017EC00002B02D0012B0DD05CE0324B5B69FA79F7
:1017FC0002F01F02012101FA02F211462D4A0B439D
:10180C00536152E02B4B9B69FA7902F01F020121C4
:10181C0001FA02F21146274A0B43936145E0254B2E
:10182C00DB69FA7902F01F02012101FA02F211467A
:10183C00204A0B43D36138E0FB795B09DBB2022B06
:10184C0022D0022B30DC002B02D0012B0ED02BE04F
:10185C00184B5B69FA7902F01F02012101FA02F2BE
:10186C00D2431146134A0B4053611EE0114B9B6946
:10187C00FA7902F01F02012101FA02F2D243114659
:10188C000C4A0B40936110E00A4BDB69FA7902F0C9
:10189C001F02012101FA02F2D2431146054A0B4004
:1018AC00D36102E000BF00E000BF00BF0C37BD46B3
:1018BC0080BC70470010024080B582B000AF4FF082
:1018CC0000024FF00003C7E90023134B5B6803F0E1
:1018DC000303022B12D0022B15D8002B02D0012BA4
:1018EC0006D010E00D4A4FF00003C7E900230BE0CF
:1018FC000B4A4FF00003C7E9002305E0FFF75AFE3F
:10190C00C7E9000100E000BFD7E9002310461946E3
:10191C000837BD4680BD00BF0010024000127A009F
:10192C00001BB700F0B583B000AFFFF7C5FFC7E9E8
:10193C000001134B5B68C3F3C013DBB2002B17D051
:10194C000F4B5B681B0903F00703591CD7E90023F5
:10195C00C1F12006A1F1200022FA01F403FA06F6E7
:10196C00344323FA00F0044323FA01F5C7E9004598
:10197C00D7E90023104619460C37BD46F0BD00BF11
:10198C0000100240F0B583B000AFFFF7CBFFC7E902
:10199C000001134B5B68C3F38023DBB2002B17D021
:1019AC000F4B5B681B0A03F00303591CD7E9002398
:1019BC00C1F12006A1F1200022FA01F403FA06F687
:1019CC00344323FA00F0044323FA01F5C7E9004538
:1019DC00D7E90023104619460C37BD46F0BD00BFB1
:1019EC0000100240F0B583B000AFFFF79BFFC7E9D2
:1019FC000001134B5B68C3F34033DBB2002B17D0F1
:101A0C000F4B5B68DB0A03F00303591CD7E9002377
:101A1C00C1F12006A1F1200022FA01F403FA06F626
:101A2C00344323FA00F0044323FA01F5C7E90045D7
:101A3C00D7E90023104619460C37BD46F0BD00BF50
:101A4C000010024080B400AFFEE780B400AFFEE7A8
:101A5C0080B400AFFEE780B400AFFEE780B400AF07
:101A6C00FEE71EF0040F0CBFEFF30880EFF30980C4
:101A7C0000F06CB900BF000080B582B000AF00234D
:101A8C00FB7145E0FB79284A2A2101FB03F313443F
:101A9C0025331B78012B38D1FB79234A2A2101FBF2
:101AAC0003F313442033D3F80630012B1BD1FB79FD
:101ABC001D4A2A2101FB03F31344243302221A701A
:101ACC00FB79194A2A2101FB03F313442533002225
:101ADC001A70154BD3F85031022283F824200220BF
:101AEC0000F0CCF911E0FB790F492A2203FB02F23A
:101AFC000A442032D2F80620013A0B492A2000FB76
:101B0C0003F30B442033C3F80620FB790133FB713C
:101B1C00054B93F86431FA799A42B3D300BF00BFF6
:101B2C000837BD4680BD00BF98050020F0B58DB0CC
:101B3C0000AF574B93F86431013BDBB287F82E3082
:101B4C009BE0012387F82F30002387F82D3082E0AB
:101B5C0097F92D304E4A2A2101FB03F31344083325
:101B6C001A7897F92D30013349492A2000FB03F3E9
:101B7C000B4408331B789A4266D997F92D30444AA6
:101B8C002A2101FB03F313441C463E4604F1200CAE
:101B9C0035462346186859689A68DB680FC51034B7
:101BAC0010366445F4D1334622461068516803C39D
:101BBC0012891A8097F92D30013397F92D20344969
:101BCC002A2000FB02F28818314A2A2101FB03F378
:101BDC00134403F1200402461946D1F800C04E68A4
:101BEC008D68C968C2F800C056609560D16010332A
:101BFC001030A342EFD1024618685968106051604A
:101C0C001B89138197F92D300133214A2A2101FBBD
:101C1C0003F313443C469C4604F1200E65462646CD
:101C2C000FCE28606960AA60EB6010340CF1100CC8
:101C3C007445F3D16246234603CB106051601B8878
:101C4C001381002387F82F3097F92D30DBB2013345
:101C5C00DBB287F82D3097F92D2097F92E309A4268
:101C6C00FFF676AF97F92F30002B0CD197F92E3069
:101C7C00DBB2013BDBB287F82E3097F92E30002B0C
:101C8C00BFF65FAF00E000BF00BF3437BD46F0BD0C
:101C9C009805002080B500AF294BD3F8503193F84C
:101CAC002430002B17D0274B1B78002B13D1244B3F
:101CBC00D3F85031012283F82420214BD3F8503132
:101CCC0019462048FFF7DCFA1D4BD3F850311C4A5B
:101CDC00C2F8543131E01C491A48FFF702FB184B8B
:101CEC00D3F85431012283F82420154BD3F850310A
:101CFC001A7A134BD3F854311B7A9A421DD1104BDC
:101D0C00D3F8503193F82430002B16D00C4BD3F869
:101D1C0050311A6A0A4BD3F854311B6A9A420CD0D0
:101D2C00074BD3F8503119460648FFF7A9FA044B74
:101D3C00D3F85031032283F8242000BF80BD00BFAC
:101D4C009805002000070020EC06002080B582B02A
:101D5C0000AF78607B6818331B68023B1B78012B43
:101D6C0002DC002B03DA18E0022B12D015E000F095
:101D7C001FF80C4B93F86731012B0DD10A4B1B68E4
:101D8C009847FFF787FF094A536843F08053536025
:101D9C0002E000F00DF800E000BF00BF0837BD46C0
:101DAC0080BD00BF980500202407002000ED00E056
:101DBC0080B582B000AF00233B600023FB71FF2392
:101DCC00BB71FFF7B3FE00BF3B4619462948FFF72E
:101DDC0088FA0346012BF7D00023FB713DE0FB7919
:101DEC00254A2A2101FB03F3134424331B78002BCF
:101DFC0030D0FB79204A2A2101FB03F3134424330E
:101E0C001B78012B26D0FB791B4A2A2101FB03F3FB
:101E1C00134408331B78BA799A4225D3FB79164AB6
:101E2C002A2101FB03F3134408331B78BB71FB79A4
:101E3C002A2202FB03F3104A134419460D48FFF7FC
:101E4C001FFAFB790C4A2A2101FB03F313442433B8
:101E5C0003221A70FB790133FB71074B93F8643141
:101E6C00FA799A42BBD300E000BF00BF0837BD46E9
:101E7C0080BD00BF000700209805002080B483B00F
:101E8C0000AF0346FB71FB79022B0AD0022B0ADC54
:101E9C00002B02D0012B02D005E000DF03E001DFB4
:101EAC0001E002DF00BF00BF0C37BD4680BC7047AD
:101EBC0080B500AFFFF7E0FDFFF7ECFE0A4BD3F85F
:101ECC005021094BD3F854319A420BD0074B1B6865
:101EDC00002B02D0054B1B689847054A536843F00A
:101EEC008053536000BF80BD98050020240700205C
:101EFC0000ED00E06F4BD3F85031EFF309821A601C
:101F0C006C4BD3F850311868A0F104001860694B81
:101F1C00D3F850311B681C60664BD3F850311868ED
:101F2C00A0F104001860634BD3F850311B681D609E
:101F3C00604BD3F850311868A0F1040018605D4B69
:101F4C00D3F850311B681E605A4BD3F850311868C7
:101F5C00A0F104001860574BD3F850311B681F6078
:101F6C00544BD3F850311868A0F104001860514B51
:101F7C00D3F850311B68C3F800804E4BD3F8503166
:101F8C001868A0F1040018604A4BD3F850311B6854
:101F9C00C3F80090474BD3F850311868A0F10400F7
:101FAC001860444BD3F850311B68C3F800A0414B68
:101FBC00D3F850311868A0F1040018603D4BD3F8E9
:101FCC0050311B68C3F800B03B4B3C4A18680028E2
:101FDC0003D010604FF000011960364BD3F850312C
:101FEC001B68D3F800B0334BD3F85031186800F1AC
:101FFC00040018602F4BD3F850311B68D3F800A0A5
:10200C002C4BD3F85031186800F104001860294BA0
:10201C00D3F850311B68D3F80090264BD3F85031CD
:10202C00186800F104001860224BD3F850311B687B
:10203C00D3F800801F4BD3F85031186800F104001E
:10204C0018601C4BD3F850311B681F68194BD3F820
:10205C005031186800F104001860164BD3F8503159
:10206C001B681E68134BD3F85031186800F104003C
:10207C001860104BD3F850311B681D680D4BD3F80A
:10208C005031186800F1040018600A4BD3F8503135
:10209C001B681C68074BD3F85031186800F104001A
:1020AC001860044BD3F850311B6883F309887047D0
:1020BC0000BF00BF98050020EC060020E8060020B9
:1020CC0080B500AF024B1B68984700BF80BD00BFB6
:1020DC002807002080B500AF024B5B68984700BF13
:1020EC0080BD00BF28070020002103E00B4B5B588C
:1020FC00435004310A480B4B42189A42F6D30A4A11
:10210C0002E0002342F8043B084B9A42F9D300F05A
:10211C0011F8FEF7D9F9FEF77FFA70477829000815
:10212C000000002040040020400400204007002054
:10213C00FEE7000080B400AF154B1B68144A43F057
:10214C0001031360124B5A681149124B13404B6038
:10215C000F4B1B680E4A23F0847323F480331360F7
:10216C000B4B1B680A4A23F480231360084B5B68F3
:10217C00074A23F4FE035360054B4FF41F029A6089
:10218C00054B4FF000629A6000BFBD4680BC7047A3
:10219C00001002400000FFF800ED00E080B584B0B4
:1021AC0000AFF860B9601346FB710BE0FB79013BA3
:1021BC00FB71FB79BA6813441B789BB21946F8681B
:1021CC0000F08CF9FB79002BF0D100BF00BF103769
:1021DC00BD4680BD2DE9F04F8FB000AF7861002374
:1021EC0087F83730B84A07F11C031268114619807A
:1021FC000233120C1A70092387F836300A2387F839
:10220C0035300B2387F834300C2387F83330002318
:10221C00FB624FF000024FF00003C7E908237B6913
:10222C001B79272B3AD0272B52DC252B02D0262BBF
:10223C001AD04DE0002387F83730092387F8363061
:10224C000A2387F835300B2387F834300C2387F8B2
:10225C003330FFF7C7FBC7E9080101212E20FFF738
:10226C00ADFA9A4BFB6233E0002387F83730022338
:10227C0087F83630032387F83530002387F834305D
:10228C00012387F83330FFF77DFBC7E908010121F3
:10229C005120FFF793FA8E4BFB6219E0012387F86C
:1022AC0037300A2387F836300B2387F835300D2367
:1022BC0087F834300E2387F83330FFF763FBC7E918
:1022CC00080101215220FFF779FA824BFB6200BF13
:1022DC0097F836303B7797F83730F9691846FEF7A0
:1022EC00CFFE7B69DB79002B15D097F833303B7729
:1022FC0097F83730F9691846FEF7C2FE0023BB7712
:10230C0004237B7797F834303B7797F83730F969AB
:10231C001846FEF7B5FE97F835303B770023BB77B0
:10232C0004237B7797F83730F9691846FEF7A8FE37
:10233C00FA6AD36843F40053D3607B691B7A03F0C9
:10234C000103D9B2FA6AD36861F30C33D360FB6A28
:10235C001B6923F440527B695B7A1B031A43FB6AAB
:10236C001A61FB6ADB6823F00C027B699B799B008A
:10237C001A43FB6ADA60FB6ADB6823F4C0627B6990
:10238C005B795B021A43FB6ADA607B69DB7903F0E9
:10239C000103D9B2FA6AD36861F30823D3607B696D
:1023AC00DB7903F00103D9B2FA6AD36861F34923EC
:1023BC00D360D7E9080102460B4696183E605B4194
:1023CC007B60D7E90023141843EB01054FF00002A2
:1023DC004FF00003EB0043EA5473E20014461D4631
:1023EC0014EB000A45EB010B7B69D3F80A309B0018
:1023FC000022BB60FA60D7E9022350465946FDF72C
:10240C00C3FE02460B46C7E90823D7E908014FF083
:10241C0064024FF00003FDF7B7FE02460B464FF087
:10242C0000044FF000051D0145EA12751401D7E9AF
:10243C0008014FF064024FF00003FDF7A5FE4FF0CA
:10244C0000004FF00001990041EA927190004FF0AA
:10245C0019024FF00003FDF797FE02460B4644EAC3
:10246C00020845EA0309C7E90889FB6A9B681B0C4B
:10247C001B043A8C1A43FB6A9A607B691B79253BD7
:10248C007A691268144941F82320FA6A13686FF3C9
:10249C00861313607B699B7B002B09D0FB6ADB687E
:1024AC007A69927B114601228A401A43FB6ADA60F0
:1024BC007B691B7901211846FEF7A8FE00BF3C374B
:1024CC00BD46BDE8F08F00BF5C2900080038014014
:1024DC0000440040004800403407002080B485B020
:1024EC0000AF78600B467B800023FB607B681B7918
:1024FC00272B0CD0272B0DDC252B02D0262B03D021
:10250C0008E0134BFB6005E0124BFB6002E0124B42
:10251C00FB6000BF00BFFB681B68C3F3C013DBB2DA
:10252C00002BF8D07B681B7A002B02D040F2FF12F4
:10253C0000E0FF22B7F9023013401BB27B807A888F
:10254C00FB685A6000BF1437BD4680BC704700BFA3
:10255C0000380140004400400048004080B485B081
:10256C0000AF78600023FB6000237B817B681B79C4
:10257C00272B0CD0272B0DDC252B02D0262B03D0A0
:10258C0008E0284BFB6005E0274BFB6002E0274B83
:10259C00FB6000BF00BFFB681B68C3F34013DBB2DA
:1025AC00002BF8D07B681B7A012B0AD17B685B79F6
:1025BC00002B06D1FB685B689BB2C3F308037B81DD
:1025CC0029E07B681B7A012B09D17B685B79002B96
:1025DC0005D0FB685B689BB2DBB27B811BE07B6840
:1025EC001B7A002B09D17B685B79002B05D1FB682A
:1025FC005B689BB2DBB27B810DE07B681B7A002BA6
:10260C0009D17B685B79002B05D0FB685B689BB2BA
:10261C0003F07F037B817B8918461437BD4680BC51
:10262C00704700BF003801400044004000480040A3
:10263C0080B582B000AF0023FB80394BDB68C3F35D
:10264C004013DBB2002B5AD0354BDB68C3F300339D
:10265C00DBB2012B0ED1324BDB685B0A03F00303B8
:10266C00002B07D12E4B5B689BB2C3F308039BB2C4
:10267C00FB803EE02A4BDB68C3F30033DBB2012B5B
:10268C000DD1274BDB685B0A03F00303002B06D04C
:10269C00234B5B689BB2DBB29BB2FB8029E0204BE7
:1026AC00DB68C3F30033DBB2002B0DD11C4BDB68B2
:1026BC005B0A03F00303002B06D1194B5B689BB23A
:1026CC00DBB29BB2FB8014E0154BDB68C3F3003329
:1026DC00DBB2002B0DD1124BDB685B0A03F003035A
:1026EC00002B06D00E4B5B689BB203F07F039BB2B2
:1026FC00FB800C4B1B68BA1D104698470BE0084B2F
:10270C00DB68C3F38013DBB2002B04D0054B1B68D2
:10271C00BA1D1046984700BF0837BD4680BD00BFA4
:10272C00003801403407002080B582B000AF002390
:10273C00FB80394BDB68C3F34013DBB2002B5AD060
:10274C00354BDB68C3F30033DBB2012B0ED1324BBC
:10275C00DB685B0A03F00303002B07D12E4B5B688D
:10276C009BB2C3F308039BB2FB803EE02A4BDB68B1
:10277C00C3F30033DBB2012B0DD1274BDB685B0AB3
:10278C0003F00303002B06D0234B5B689BB2DBB238
:10279C009BB2FB8029E0204BDB68C3F30033DBB238
:1027AC00002B0DD11C4BDB685B0A03F00303002BE1
:1027BC0006D1194B5B689BB2DBB29BB2FB8014E079
:1027CC00154BDB68C3F30033DBB2002B0DD1124B7E
:1027DC00DB685B0A03F00303002B06D00E4B5B682F
:1027EC009BB203F07F039BB2FB800C4B1B68BA1DA2
:1027FC00104698470BE0084BDB68C3F38013DBB241
:10280C00002B04D0054B1B68BA1D1046984700BF1F
:10281C000837BD4680BD00BF00440040340700208F
:10282C0080B582B000AF0023FB80394BDB68C3F36B
:10283C004013DBB2002B5AD0354BDB68C3F30033AB
:10284C00DBB2012B0ED1324BDB685B0A03F00303C6
:10285C00002B07D12E4B5B689BB2C3F308039BB2D2
:10286C00FB803EE02A4BDB68C3F30033DBB2012B69
:10287C000DD1274BDB685B0A03F00303002B06D05A
:10288C00234B5B689BB2DBB29BB2FB8029E0204BF5
:10289C00DB68C3F30033DBB2002B0DD11C4BDB68C0
:1028AC005B0A03F00303002B06D1194B5B689BB248
:1028BC00DBB29BB2FB8014E0154BDB68C3F3003337
:1028CC00DBB2002B0DD1124BDB685B0A03F0030368
:1028DC00002B06D00E4B5B689BB203F07F039BB2C0
:1028EC00FB800C4B1B68BA1D104698470BE0084B3D
:1028FC00DB68C3F38013DBB2002B04D0054B1B68E1
:10290C00BA1D1046984700BF0837BD4680BD00BFB2
:10291C000048004034070020024B13B10248FDF779
:10292C00B7BD704700000000A9040008F8B500BF4F
:10293C00F8BC08BC9E467047F8B500BFF8BC08BC94
:04294C009E467047EC
:102950000E00010001020304050700000908010040
:04296000080000204B
:0829640060D8FF7F01000000B4
:08296C0025290008750100088F
:042974004D01000809
:10297800080000200000000000000000F402002011
:102988005C030020C40300200000000000000000D9
:10299800000000000000000000000000000000002F
:1029A800000000000000000000000000000000001F
:1029B800000000000000000000000000000000000F
:1029C80000000000000000000000000000000000FF
:1029D80000000000000000000000000000000000EF
:1029E80000000000000000000000000000000000DF
:1029F80000000000000000000000000000000000CF
:102A080000000000000000000000000000000000BE
:102A180000000000000000000000000000000000AE
:102A280001000000000000000E33CDAB34126DE64B
:102A3800ECDE05000B0000000000000000000000B4
:102A4800000000000000000000000000000000007E
:102A5800000000000000000000000000000000006E
:102A6800000000000000000000000000000000005E
:102A7800000000000000000000000000000000004E
:102DA8000000000025000300000000C20100000030
:04000005080020F5DA
:00000001FF
