:020000040800F2
:108000000050002079930008D58C0008DB8C000814
:10801000E18C0008E78C0008ED8C000800000000EF
:10802000000000000000000000000000F38C0008C9
:10803000C1930008000000008591000841910008EC
:10804000C1930008C1930008C1930008C1930008C0
:10805000C1930008C1930008D1850008F18500088C
:10806000118600083186000851860008C193000877
:10807000C1930008C1930008C1930008C193000890
:10808000C1930008C1930008C1930008C193000880
:10809000C1930008C1930008C193000871860008CD
:1080A000C1930008C1930008C1930008C193000860
:1080B000C1930008C1930008C1930008C193000850
:1080C000C1930008C1930008C193000851930008B0
:1080D000659300083194000829950008219600084E
:1080E00019870008C1930008C19300080000000030
:1080F0000000000000000000000000000000000080
:0C81000000000000000000005FF808F123
:10810C000348044B834202D0034B03B1184770471A
:10811C00300400203004002000000000054806490F
:10812C000B1AD90F01EBA301491002D0034B03B179
:10813C001847704730040020300400200000000075
:10814C0010B5064C237843B9FFF7DAFF044B13B193
:10815C000448AFF300800123237010BD30040020CD
:10816C00000000002C97000808B5044B1BB1044913
:10817C000448AFF30080BDE80840CFE700000000E2
:10818C00340400202C970008002301461A46184698
:10819C0000F03AB838B5084B084D5B1B9C1007D063
:1081AC00043B1D44013C55F804399847002CF9D187
:1081BC00BDE8384001F0BABA74970008709700080F
:1081CC0070B50D4E0D4D761BB61006D0002455F82B
:1081DC00043B01349847A642F9D1094E094D01F0F0
:1081EC009FFA761BB61006D0002455F8043B0134D8
:1081FC009847A642F9D170BD6897000868970008A7
:10820C00709700086897000870B5174C2568D5F86A
:10821C004841DCB165681F2D23DC80B14FF0010CA7
:10822C0004EB850ECEF88820D4F888610CFA05F2A0
:10823C0016430228C4F88861CEF808310BD06B1CA9
:10824C0002356360002044F8251070BD05F5A67456
:10825C00C5F84841DEE7D4F88C311343C4F88C31AF
:10826C00EDE74FF0FF3070BD6497000880B500AFAC
:10827C0000F058F800F001F8FCE780B586B000AFCC
:10828C0001220021012000F0BFFB0122012101206D
:10829C0000F0BAFB00237B610BE000233B6102E0A2
:1082AC003B6901333B613B69FE2BF9D97B69013397
:1082BC007B617B69B3F57A7FEFD30022002101202B
:1082CC0000F0A2FB00220121012000F09DFB002305
:1082DC00FB600BE00023BB6002E0BB680133BB60BA
:1082EC00BB68FE2BF9D9FB680133FB60FB68B3F567
:1082FC007A7FEFD300237B600BE000233B6002E02E
:10830C003B6801333B603B68FE2BF9D97B6801333A
:10831C007B607B68B3F57A7FEFD300BF00BF183763
:10832C00BD4680BD80B584B000AF204A3B1D07CA56
:10833C0003C31A701E4A3B46126811461980023359
:10834C00120C1A703968012000F0DCFA0F233B7014
:10835C003968012000F0D6FA00233B7039680120FF
:10836C0000F0D0FA01233B703968012000F0CAFA02
:10837C0000220021012000F047FB002201210120F6
:10838C0000F042FB00220E21012000F03DFB0022F8
:10839C000F21012000F038FB3B1D93E8070000F093
:1083AC002DF800BF1037BD4680BD00BF44970008B4
:1083BC005097000880B500AF00F014F800BF80BDE6
:1083CC0080B584B000AF78607B681B6883F3088845
:1083DC007B6804331B68FB60FB68984700BF103751
:1083EC00BD4680BD80B500AF01211F2000F05CFAB6
:1083FC004FF00060FFF7E4FF00BF80BD90B58BB07D
:10840C0000AF3B1D83E80700002387F824300423CA
:10841C0087F82530002387F82630664B07F11404C3
:10842C000FCB84E80F000121202000F0CFFB7B79DB
:10843C0087F824303B79796A184600F063FA5E4A73
:10844C007B799B08D8B20346023352F823307A79F1
:10845C0002F0030292000F2101FA02F2D2435649B4
:10846C001A40831C41F82320534A7B799B08D8B2CD
:10847C000346023352F823303A7911467A7902F0E6
:10848C000302920001FA02F24B491A43831C41F891
:10849C002320BB79032B32D0032B45DC012B02D0DC
:1084AC00022B16D040E0454BDB687A79114601224D
:1084BC008A401146414A0B43D360404B9B687A7902
:1084CC00114601228A40D24311463C4A0B4093602C
:1084DC002AE03A4B9B687A79114601228A40114670
:1084EC00364A0B439360354BDB687A79114601228F
:1084FC008A40D2431146314A0B40D36014E02F4BD3
:10850C009B687A79114601228A4011462B4A0B430B
:10851C0093602A4BDB687A79114601228A40114616
:10852C00264A0B43D36000BFFB79012B0AD1234BA6
:10853C001B687A79114601228A4011461F4A0B4367
:10854C0013600AE01D4B1B687A79114601228A40A0
:10855C00D2431146194A0B4013603B7A012B0AD1C6
:10856C00164B5B687A79114601228A401146134AF0
:10857C000B4353600AE0114B5B687A791146012278
:10858C008A40D24311460D4A0B4053607B79194601
:10859C00D7F809300A4A42F821307B7928333B441A
:1085AC0013F8143C0121184600F072FA00BF2C3766
:1085BC00BD4690BD549700080000014000040140E6
:1085CC004C04002080B500AF044B1B689847044A4C
:1085DC00536943F00103536100BF80BD4C0400207C
:1085EC000004014080B500AF044B5B689847044A17
:1085FC00536943F00203536100BF80BD4C0400205B
:10860C000004014080B500AF044B9B689847044AB6
:10861C00536943F00403536100BF80BD4C04002038
:10862C000004014080B500AF044BDB689847044A56
:10863C00536943F00803536100BF80BD4C04002014
:10864C000004014080B500AF044B1B699847044AF5
:10865C00536943F01003536100BF80BD4C040020EC
:10866C000004014080B500AF264B5B69C3F3401397
:10867C00DBB2002B07D0244B5B699847214A536926
:10868C0043F0200353611F4B5B69C3F38013DBB2D0
:10869C00002B07D01C4B9B6998471A4A536943F02F
:1086AC0040035361174B5B69C3F3C013DBB2002B60
:1086BC0007D0154BDB699847124A536943F0800386
:1086CC005361104B5B69C3F30023DBB2002B07D063
:1086DC000D4B1B6A98470B4A536943F480735361E3
:1086EC00084B5B69C3F34023DBB2002B07D0064B6E
:1086FC005B6A9847034A536943F40073536100BFA4
:10870C0080BD00BF000401404C04002080B500AFC8
:10871C00264B5B69C3F38023DBB2002B07D0244BC1
:10872C005B699847214A536943F4806353611F4B3B
:10873C005B69C3F30033DBB2002B07D01C4B9B6986
:10874C0098471A4A536943F480535361174B5B693A
:10875C00C3F34033DBB2002B07D0154BDB699847D2
:10876C00124A536943F400535361104B5B69C3F3D2
:10877C008033DBB2002B07D00D4B1B6A98470B4A9A
:10878C00536943F480435361084B5B69C3F3C033B3
:10879C00DBB2002B07D0064B5B6A9847034A536940
:1087AC0043F40043536100BF80BD00BF000401408F
:1087BC004C04002080B400AF044A136943F08003DA
:1087CC00136100BFBD4680BC704700BF0020024053
:1087DC0080B483B000AF0023FB710A4B0A4A5A6085
:1087EC00084B0A4A5A60074B1B69C3F3C013DBB230
:1087FC00002B01D00123FB71FB7918460C37BD46C9
:10880C0080BC70470020024023016745AB89EFCD47
:10881C0080B485B000AF78600023FB7300BF214BA0
:10882C00DB68C3F30003DBB2002BF8D11D4A1369DC
:10883C0043F0020313611B4A7B685361194A1369A5
:10884C0043F04003136100BF164BDB68C3F3000316
:10885C00DBB2002BF8D1134BDB68C3F38003DBB224
:10886C00002B06D10F4BDB68C3F30013DBB2002BDC
:10887C000CD00C4AD36843F00403D360094AD36884
:10888C0043F01003D3600123FB7304E0054A136922
:10889C006FF341031361FB7B18461437BD4680BC54
:1088AC00704700BF0020024080B584B000AF034683
:1088BC000A46FB711346BB710023FB73FB7903F56E
:1088CC0000339B02BB60FFF783FF0346FB730BE097
:1088DC00B868FFF79DFF0346FB73BB6803F5806325
:1088EC00BB60BB79013BBB71BB79002B02D0FB7B1E
:1088FC00002BEDD0FFF75EFFFB7B18461037BD4613
:10890C0080BD000080B584B000AF03463960FB71B8
:10891C000023FB600023BB60FB79032B26D801A24C
:10892C0052F823F0418900084F8900085D8900083E
:10893C006B8900080121222000F048F92E4BFB60C6
:10894C0014E00121232000F041F92C4BFB600DE0D9
:10895C000121242000F03AF9294BFB6006E00121AB
:10896C00252000F033F9274BFB6000BF3B78072B29
:10897C0002D8FB68BB6006E03B78083BDBB23B707F
:10898C00FB680433BB607B780F2B0CD1FB68DB6876
:10899C003A78114601228A40D2431A40FB68DA60C9
:1089AC0008237B700BE07B78082B08D1FB68DB6815
:1089BC003A78114601228A401A43FB68DA60BB6898
:1089CC001A683B789B000F2101FA03F3DB431A4032
:1089DC00BB681A60BB681A68B9787B780B43DBB24A
:1089EC0019463B789B0001FA03F31A43BB681A60E3
:1089FC0000BF1037BD4680BD00080140000C01408F
:108A0C00001001400014014080B485B000AF034653
:108A1C00FB710B46BB7113467B710023FB60FB792A
:108A2C00032B17D801A252F823F000BF498A000883
:108A3C004F8A0008558A00085B8A0008104BFB60BF
:108A4C0008E0104BFB6005E00F4BFB6002E00F4BA6
:108A5C00FB6000BF7B79012B05D1BB79012202FAA7
:108A6C0003F31A4605E0BB791033012202FA03F333
:108A7C001A46FB681A6100BF1437BD4680BC7047AC
:108A8C0000080140000C014000100140001401409E
:108A9C0090B482B000AF03460A46FB711346BB711B
:108AAC00BB79012B13D1164AFB795B09D8B203466B
:108ABC0052F82330FA7902F01F02012101FA02F276
:108ACC0014460F4A0146234342F8213013E00C4A66
:108ADC00FB795B09D8B20346203352F82330FA797C
:108AEC0002F01F02012101FA02F205491A4300F1BA
:108AFC00200341F8232000BF0837BD4690BC7047C7
:108B0C0000E100E080B485B000AF786039600123EB
:108B1C00FB737B681B78072B1DD87B6893F902309D
:108B2C0001335A4203F0070302F0070258BF5342C5
:108B3C005AB27B689A707B6893F902307A689B0012
:108B4C0013443A68C3F803207B681B780133DAB20C
:108B5C007B681A7001E00023FB73FB7B184614370B
:108B6C00BD4680BC704780B485B000AF786039607A
:108B7C000123FB737B681B78002B1ED07B6893F959
:108B8C0001307A689B001344D3F803203B681A60C9
:108B9C007B6893F9013001335A4203F0070302F06A
:108BAC00070258BF53425AB27B685A707B681B78D5
:108BBC00013BDAB27B681A7001E00223FB73FB7B8A
:108BCC0018461437BD4680BC7047000080B483B093
:108BDC0000AF03460A46FB711346BB71BB79012BF0
:108BEC0032D1FB795B09DBB2022B20D0022B61DC8A
:108BFC00002B02D0012B0DD05CE0324B5B69FA7973
:108C0C0002F01F02012101FA02F211462D4A0B4318
:108C1C00536152E02B4B9B69FA7902F01F02012140
:108C2C0001FA02F21146274A0B43936145E0254BAA
:108C3C00DB69FA7902F01F02012101FA02F21146F6
:108C4C00204A0B43D36138E0FB795B09DBB2022B82
:108C5C0022D0022B30DC002B02D0012B0ED02BE0CB
:108C6C00184B5B69FA7902F01F02012101FA02F23A
:108C7C00D2431146134A0B4053611EE0114B9B69C2
:108C8C00FA7902F01F02012101FA02F2D2431146D5
:108C9C000C4A0B40936110E00A4BDB69FA7902F045
:108CAC001F02012101FA02F2D2431146054A0B4080
:108CBC00D36102E000BF00E000BF00BF0C37BD462F
:108CCC0080BC70470010024080B400AFFEE780B457
:108CDC0000AFFEE780B400AFFEE780B400AFFEE764
:108CEC0080B400AFFEE71EF0040F0CBFEFF308805A
:108CFC00EFF3098000F06CB900BF000080B582B0C2
:108D0C0000AF0023FB7145E0FB79284A2A2101FBC7
:108D1C0003F3134425331B78012B38D1FB79234AF9
:108D2C002A2101FB03F313442033D3F80630012B23
:108D3C001BD1FB791D4A2A2101FB03F31344243375
:108D4C0002221A70FB79194A2A2101FB03F31344FE
:108D5C00253300221A70154BD3F85031022283F8B8
:108D6C002420022000F0CCF911E0FB790F492A22D3
:108D7C0003FB02F20A442032D2F80620013A0B49D6
:108D8C002A2000FB03F30B442033C3F80620FB79A5
:108D9C000133FB71054B93F86431FA799A42B3D3E2
:108DAC0000BF00BF0837BD4680BD00BF880400204F
:108DBC00F0B58DB000AF574B93F86431013BDBB28B
:108DCC0087F82E309BE0012387F82F30002387F89B
:108DDC002D3082E097F92D304E4A2A2101FB03F306
:108DEC00134408331A7897F92D30013349492A2056
:108DFC0000FB03F30B4408331B789A4266D997F9AE
:108E0C002D30444A2A2101FB03F313441C463E46F1
:108E1C0004F1200C35462346186859689A68DB68BB
:108E2C000FC5103410366445F4D133462246106811
:108E3C00516803C312891A8097F92D30013397F9C1
:108E4C002D2034492A2000FB02F28818314A2A21AD
:108E5C0001FB03F3134403F1200402461946D1F835
:108E6C0000C04E688D68C968C2F800C05660956035
:108E7C00D16010331030A342EFD102461868596804
:108E8C00106051601B89138197F92D300133214AF1
:108E9C002A2101FB03F313443C469C4604F1200EAB
:108EAC00654626460FCE28606960AA60EB601034D8
:108EBC000CF1100C7445F3D16246234603CB1060C1
:108ECC0051601B881381002387F82F3097F92D30C0
:108EDC00DBB20133DBB287F82D3097F92D2097F9EF
:108EEC002E309A42FFF676AF97F92F30002B0CD12B
:108EFC0097F92E30DBB2013BDBB287F82E3097F9B5
:108F0C002E30002BBFF65FAF00E000BF00BF343740
:108F1C00BD46F0BD8804002080B500AF294BD3F8C6
:108F2C00503193F82430002B17D0274B1B78002B93
:108F3C0013D1244BD3F85031012283F82420214B38
:108F4C00D3F8503119462048FFF7DCFD1D4BD3F800
:108F5C0050311C4AC2F8543131E01C491A48FFF711
:108F6C0002FE184BD3F85431012283F82420154B00
:108F7C00D3F850311A7A134BD3F854311B7A9A42E6
:108F8C001DD1104BD3F8503193F82430002B16D050
:108F9C000C4BD3F850311A6A0A4BD3F854311B6A74
:108FAC009A420CD0074BD3F8503119460648FFF7BC
:108FBC00A9FD044BD3F85031032283F8242000BFC1
:108FCC0080BD00BF88040020F0050020DC050020D7
:108FDC0080B582B000AF78607B6818331B68023BA9
:108FEC001B78012B02DC002B03DA18E0022B12D0C9
:108FFC0015E000F01FF80C4B93F86731012B0DD1E5
:10900C000A4B1B689847FFF787FF094A536843F0E0
:10901C008053536002E000F00DF800E000BF00BF89
:10902C000837BD4680BD00BF880400201406002010
:10903C0000ED00E080B582B000AF00233B60002360
:10904C00FB71FF23BB71FFF7B3FE00BF3B46194614
:10905C002948FFF788FD0346012BF7D00023FB714D
:10906C003DE0FB79254A2A2101FB03F31344243309
:10907C001B78002B30D0FB79204A2A2101FB03F30B
:10908C00134424331B78012B26D0FB791B4A2A214D
:10909C0001FB03F3134408331B78BA799A4225D3A6
:1090AC00FB79164A2A2101FB03F3134408331B787E
:1090BC00BB71FB792A2202FB03F3104A13441946B5
:1090CC000D48FFF71FFDFB790C4A2A2101FB03F326
:1090DC001344243303221A70FB790133FB71074BC1
:1090EC0093F86431FA799A42BBD300E000BF00BF19
:1090FC000837BD4680BD00BFF00500208804002065
:10910C0080B483B000AF0346FB71FB79022B0AD00D
:10911C00022B0ADC002B02D0012B02D005E000DF71
:10912C0003E001DF01E002DF00BF00BF0C37BD46EA
:10913C0080BC704780B500AFFFF7E0FDFFF7ECFE99
:10914C000A4BD3F85021094BD3F854319A420BD027
:10915C00074B1B68002B02D0054B1B689847054A30
:10916C00536843F08053536000BF80BD88040020D7
:10917C001406002000ED00E06F4BD3F85031EFF3F4
:10918C0009821A606C4BD3F850311868A0F10400B6
:10919C001860694BD3F850311B681C60664BD3F8D0
:1091AC0050311868A0F104001860634BD3F85031AB
:1091BC001B681D60604BD3F850311868A0F1040097
:1091CC0018605D4BD3F850311B681E605A4BD3F8B6
:1091DC0050311868A0F104001860574BD3F8503187
:1091EC001B681F60544BD3F850311868A0F1040071
:1091FC001860514BD3F850311B68C3F800804E4BAC
:10920C00D3F850311868A0F1040018604A4BD3F819
:10921C0050311B68C3F80090474BD3F85031186895
:10922C00A0F104001860444BD3F850311B68C3F80C
:10923C0000A0414BD3F850311868A0F1040018601D
:10924C003D4BD3F850311B68C3F800B03B4B3C4A44
:10925C001868002803D010604FF000011960364BDD
:10926C00D3F850311B68D3F800B0334BD3F85031DE
:10927C00186800F1040018602F4BD3F850311B68AC
:10928C00D3F800A02C4BD3F85031186800F104002F
:10929C001860294BD3F850311B68D3F80090264B3B
:1092AC00D3F85031186800F104001860224BD3F841
:1092BC0050311B68D3F800801F4BD3F8503118681D
:1092CC0000F1040018601C4BD3F850311B681F6868
:1092DC00194BD3F85031186800F104001860164B84
:1092EC00D3F850311B681E68134BD3F850311868F3
:1092FC0000F104001860104BD3F850311B681D6846
:10930C000D4BD3F85031186800F1040018600A4B6B
:10931C00D3F850311B681C68074BD3F850311868D0
:10932C0000F104001860044BD3F850311B6883F330
:10933C000988704700BF00BF88040020DC050020AE
:10934C00D805002080B500AF024B1B68984700BFC2
:10935C0080BD00BF1806002080B500AF024B5B68D3
:10936C00984700BF80BD00BF18060020002103E015
:10937C000B4B5B58435004310A480B4B42189A4232
:10938C00F6D30A4A02E0002342F8043B084B9A4207
:10939C00F9D300F011F8FEF713FFFEF767FF7047E3
:1093AC0074970008000000203004002030040020D6
:1093BC0030060020FEE7000080B400AF154B1B68A0
:1093CC00144A43F001031360124B5A681149124BB3
:1093DC0013404B600F4B1B680E4A23F0847323F42D
:1093EC00803313600B4B1B680A4A23F480231360F1
:1093FC00084B5B68074A23F4FE035360054B4FF49C
:10940C001F029A60054B064A9A6000BFBD4680BC9D
:10941C00704700BF001002400000FFF800ED00E0B4
:10942C000080000880B582B000AF0023FB80394B70
:10943C00DB68C3F34013DBB2002B5AD0354BDB682F
:10944C00C3F30033DBB2012B0ED1324BDB685B0A6A
:10945C0003F00303002B07D12E4B5B689BB2C3F3C5
:10946C0008039BB2FB803EE02A4BDB68C3F300335E
:10947C00DBB2012B0DD1274BDB685B0A03F0030336
:10948C00002B06D0234B5B689BB2DBB29BB2FB80FC
:10949C0029E0204BDB68C3F30033DBB2002B0DD18A
:1094AC001C4BDB685B0A03F00303002B06D1194B42
:1094BC005B689BB2DBB29BB2FB8014E0154BDB68A4
:1094CC00C3F30033DBB2002B0DD1124BDB685B0A0C
:1094DC0003F00303002B06D00E4B5B689BB203F02A
:1094EC007F039BB2FB800C4B1B68BA1D1046984740
:1094FC000BE0084BDB68C3F38013DBB2002B04D00A
:10950C00054B1B68BA1D1046984700BF0837BD466F
:10951C0080BD00BF003801402406002080B582B019
:10952C0000AF0023FB80394BDB68C3F34013DBB285
:10953C00002B5AD0354BDB68C3F30033DBB2012B65
:10954C000ED1324BDB685B0A03F00303002B07D10F
:10955C002E4B5B689BB2C3F308039BB2FB803EE0CF
:10956C002A4BDB68C3F30033DBB2012B0DD1274B45
:10957C00DB685B0A03F00303002B06D0234B5B680C
:10958C009BB2DBB29BB2FB8029E0204BDB68C3F3C0
:10959C000033DBB2002B0DD11C4BDB685B0A03F0F4
:1095AC000303002B06D1194B5B689BB2DBB29BB259
:1095BC00FB8014E0154BDB68C3F30033DBB2002BEC
:1095CC000DD1124BDB685B0A03F00303002B06D0B2
:1095DC000E4B5B689BB203F07F039BB2FB800C4B82
:1095EC001B68BA1D104698470BE0084BDB68C3F3A9
:1095FC008013DBB2002B04D0054B1B68BA1D104640
:10960C00984700BF0837BD4680BD00BF00440040EE
:10961C002406002080B582B000AF0023FB80394BBC
:10962C00DB68C3F34013DBB2002B5AD0354BDB683D
:10963C00C3F30033DBB2012B0ED1324BDB685B0A78
:10964C0003F00303002B07D12E4B5B689BB2C3F3D3
:10965C0008039BB2FB803EE02A4BDB68C3F300336C
:10966C00DBB2012B0DD1274BDB685B0A03F0030344
:10967C00002B06D0234B5B689BB2DBB29BB2FB800A
:10968C0029E0204BDB68C3F30033DBB2002B0DD198
:10969C001C4BDB685B0A03F00303002B06D1194B50
:1096AC005B689BB2DBB29BB2FB8014E0154BDB68B2
:1096BC00C3F30033DBB2002B0DD1124BDB685B0A1A
:1096CC0003F00303002B06D00E4B5B689BB203F038
:1096DC007F039BB2FB800C4B1B68BA1D104698474E
:1096EC000BE0084BDB68C3F38013DBB2002B04D018
:1096FC00054B1B68BA1D1046984700BF0837BD467E
:10970C0080BD00BF0048004024060020024B13B16E
:10971C000248FEF739BD704700000000A181000827
:10972C00F8B500BFF8BC08BC9E467047F8B500BF42
:08973C00F8BC08BC9E46704712
:109744000008010100C18300080000000E000100B0
:10975400060708090A17171717172828282828287A
:0497640008000020D9
:08976800199700087581000843
:049770004D8100081F
:10977400080000200000000000000000F4020020A7
:109784005C030020C403002000000000000000006F
:1097940000000000000000000000000000000000C5
:1097A40000000000000000000000000000000000B5
:1097B40000000000000000000000000000000000A5
:1097C4000000000000000000000000000000000095
:1097D4000000000000000000000000000000000085
:1097E4000000000000000000000000000000000075
:1097F4000000000000000000000000000000000065
:109804000000000000000000000000000000000054
:109814000000000000000000000000000000000044
:1098240001000000000000000E33CDAB34126DE6E1
:10983400ECDE05000B00000000000000000000004A
:109844000000000000000000000000000000000014
:109854000000000000000000000000000000000004
:1098640000000000000000000000000000000000F4
:1098740000000000000000000000000000000000E4
:0400000508009379E3
:00000001FF
