:020000040800F2
:1080000000500020558300089D8300089D830008D0
:108010009D8300089D8300089D83000800000000E8
:108020000000000000000000000000009D83000828
:108030009D830008000000009D8300089D830008C8
:108040009D8300089D8300089D8300089D83000890
:108050009D8300089D830008ED83000809840008C3
:1080600025840008418400085D8400089D83000881
:108070009D8300089D8300089D8300089D83000860
:108080009D8300089D8300089D8300089D83000850
:108090009D8300089D8300089D8300087984000863
:1080A0009D8300089D8300089D8300089D83000830
:1080B0009D8300089D8300089D8300089D83000820
:1080C0009D8300089D8300089D8300089D83000810
:1080D0009D8300089D8300089D8300089D83000800
:1080E000098500089D8300089D83000800000000AA
:1080F0000000000000000000000000000000000080
:0C81000000000000000000005FF808F123
:10810C000448054B10B5834203D0044B002B00D020
:10811C00984710BD00000020000000200000000067
:10812C0006480749091A8B10C90FC91810B5491010
:10813C0003D0044B002B00D0984710BD000000204A
:10814C00000000200000000010B5074C2378002B25
:10815C0009D1FFF7D5FF054B002B02D00448AFF334
:10816C0000800123237010BD0000002000000000DF
:10817C0048870008054B10B5002B03D0044905486F
:10818C00AFF30080FFF7CCFF10BDC046000000002D
:10819C00040000204887000870B50C4D0C4E761B6F
:1081AC00B61005D0002408CD01349847A642FAD168
:1081BC0000F0C4FA074D084E761BB61005D000240B
:1081CC0008CD01349847A642FAD170BD64870008E7
:1081DC0064870008648700086887000810B50122CE
:1081EC000E211046184CA04701220F211046A04723
:1081FC00002203E00133FE2BFCD90132B2F5FA7FE9
:10820C0001D20023F7E700220E2101200E4CA047DB
:10821C0000220F210120A047002203E00133FE2B96
:10822C00FCD90132B2F5FA7F01D20023F7E7002224
:10823C0003E00133FE2BFCD90132B2F5FA7F01D2F7
:10824C000023F7E710BD00BF6986000810B50122B6
:10825C0000211046184CA047012211461046A04799
:10826C00002203E00133FE2BFCD90132B2F5FA7F78
:10827C0001D20023F7E70022114601200E4CA04743
:10828C00002201210846A047002203E00133FE2B07
:10829C00FCD90132B2F5FA7F01D20023F7E70022B4
:1082AC0003E00133FE2BFCD90132B2F5FA7F01D287
:1082BC000023F7E710BD00BF69860008F0B583B056
:1082CC00174B1B68ADF804301B0C8DF80630019968
:1082DC000120144EB0470F278DF80470019901202E
:1082EC00B04700258DF8045001990120B0470124B6
:1082FC008DF8044001992046B0472A46294620466D
:10830C00094EB0472A4621462046B0472A460E2140
:10831C002046B0472A4639462046B04703B0F0BD48
:10832C0060870008998500086986000808B5034B2A
:10833C009847034B9847034B9847FAE7C9820008C4
:10834C0059820008E9810008002103E00B4B5B58BF
:10835C00435004310A480B4B42189A42F6D30A4A4E
:10836C0002E0002342F8043B084B9A42F9D300F098
:10837C0011F8FFF711FFFFF7D9FF70476C87000862
:10838C000000002000000020000000205800002009
:10839C00FEE700000E4B1A6842F001021A605968A1
:1083AC000C4A0A405A601A6822F0847222F4803215
:1083BC001A601A6822F480221A605A6822F4FE02AB
:1083CC005A604FF41F029A60034B044A9A6070473C
:1083DC00001002400000FFF800ED00E000800008F3
:1083EC0008B5044B1B689847034A536943F00103D3
:1083FC00536108BD1C0000200004014008B5044B6B
:10840C005B689847034A536943F00203536108BD04
:10841C001C0000200004014008B5044B9B689847E1
:10842C00034A536943F00403536108BD1C00002048
:10843C000004014008B5044BDB689847034A5369B4
:10844C0043F00803536108BD1C00002000040140E8
:10845C0008B5044B1B699847034A536943F0100352
:10846C00536108BD1C0000200004014008B5214BDD
:10847C005B6913F0200F07D01F4B5B6998471D4AAF
:10848C00536943F0200353611A4B5B6913F0400F9F
:10849C0007D0194B9B699847164A536943F0400320
:1084AC005361144B5B6913F0800F07D0124BDB69DF
:1084BC009847104A536943F0800353610D4B5B6935
:1084CC0013F4807F07D00C4B1B6A9847094A5369F9
:1084DC0043F480735361074B5B6913F4007F07D03F
:1084EC00054B5B6A9847034A536943F40073536125
:1084FC0008BD00BF000401401C00002008B5214B42
:10850C005B6913F4806F07D01F4B5B6998471D4A5A
:10851C00536943F4806353611A4B5B6913F4805FB6
:10852C0007D0194B9B699847164A536943F48053FB
:10853C005361144B5B6913F4005F07D0124BDB697A
:10854C009847104A536943F4005353610D4B5B69D0
:10855C0013F4804F07D00C4B1B6A9847094A536998
:10856C0043F480435361074B5B6913F4004F07D00E
:10857C00054B5B6A9847034A536943F400435361C4
:10858C0008BD00BF000401401C00002000B583B0F2
:10859C00019103283BD8DFE800F002282E3401219A
:1085AC002220294B984729499DF80430072B30D8B5
:1085BC000A469DF805300F2B30D0082B3BD01068A5
:1085CC009DF8043099000F238B4020EA03031360BD
:1085DC0010689DF806309DF805C043EA0C038B40EB
:1085EC000343136003B05DF804FB01212320164BF9
:1085FC0098471749D8E701212420134B9847154970
:10860C00D2E701212520104B98471349CCE70021D4
:10861C00CAE7083B8DF804300A1DCAE7CB689DF801
:10862C0004C0012000FA0CF023EA0003CB600823FD
:10863C008DF80530C3E7CB689DF804C0012000FA23
:10864C000CF00343CB60BAE7B18600080008014088
:10865C00000C01400010014000140140032803D815
:10866C00DFE800F00A040608002006E0094804E0F0
:10867C00094802E0094800E00948012A05D01031F8
:10868C00012303FA01F101617047012303FA01F19F
:10869C00F9E700BF000C014000100140001401403C
:1086AC0000080140012906D04309012B2FD0022BD1
:1086BC0037D013B370474309012B0CD0022B13D0C6
:1086CC00002BF7D11C4A536900F01F010120884090
:1086DC00184350617047184A936900F01F0101203C
:1086EC008840184390617047134AD36900F01F010A
:1086FC00012088401843D06170470F4A536900F03D
:10870C001F010120884023EA0000506170470A4A8B
:10871C00936900F01F010120884023EA000090615A
:10872C0070470549CB6900F01F00012202FA00F0E6
:10873C0023EA0000C861BDE700100240F8B5C0464E
:10874C00F8BC08BC9E467047F8B5C046F8BC08BCDF
:04875C009E4670477E
:048760000E00010006
:048764008181000807
:04876800558100082F
:040000050800835517
:00000001FF
