:020000040800F2
:1000000000500020410900088909000889090008FA
:100010008909000889090008890900080000000012
:100020000000000000000000000000008909000836
:1000300089090008000000008909000889090008F2
:100040008909000889090008890900088909000848
:1000500089090008890900080D0A0008290A000812
:10006000450A0008610A00087D0A0008890900089D
:100070008909000889090008890900088909000818
:100080008909000889090008890900088909000808
:10009000890900088909000889090008990A0008E7
:1000A00089090008890900088909000889090008E8
:1000B00089090008890900088909000889090008D8
:1000C00089090008890900088909000889090008C8
:1000D0008909000809140008D91400089D150008B2
:1000E000290B0008890900088909000800000000A0
:1000F0000000000000000000000000000000000000
:0C01000000000000000000005FF808F1A3
:10010C000448054B10B5834203D0044B002B00D0A0
:10011C00984710BD9C0200209C02002000000000AB
:10012C0006480749091A8B10C90FC91810B5491090
:10013C0003D0044B002B00D0984710BD9C0200202C
:10014C009C0200200000000010B5074C2378002B07
:10015C0009D1FFF7D5FF054B002B02D00448AFF3B4
:10016C0000800123237010BD9C02002000000000C1
:10017C0060160008054B10B5002B03D00449054848
:10018C00AFF30080FFF7CCFF10BDC04600000000AD
:10019C00A002002060160008002B11D1002A0FD1FC
:1001AC00002900D1002802D00021C943080007B45F
:1001BC00024802A14018029003BDC046B5010000E0
:1001CC0003B4684601B5029800F006F8019B9E4600
:1001DC0002B00CBC7047C046F0B557464E4645467B
:1001EC00DE46E0B504000D009246994683B08B4282
:1001FC0030D82DD04946504600F0BCF829000600F6
:10020C00200000F0B7F8331A9846203B9B4633D4B5
:10021C005A465346934042461F00534693401E0095
:10022C00AF423AD8AF4200D178E05B46A41BBD4147
:10023C00002B00DA75E000220023009201930123C9
:10024C005A4693400193012342469340009328E081
:10025C008242CFD900220023009201930C9B002BE9
:10026C0001D01C605D600098019903B0F0BCBB46E6
:10027C00B246A946A046F0BD424620239B1A5246E0
:10028C00DA40414613004A468A40170042461F4353
:10029C00534693401E00AF42C4D900220023009263
:1002AC0001934346002BD9D0FB0772081A434646EC
:1002BC007B080EE0AB4201D1A2420CD8A41A9D419E
:1002CC00012024196D410021013E24184D41002EBE
:1002DC0006D0AB42EED9013E24196D41002EF8D167
:1002EC00009801995B4600196941002B24DB2B0017
:1002FC005A464446D3402A00E2401C005B46150097
:10030C00002B2ADB26009E40330026004746BE40C9
:10031C003200801A9941009001919FE7A342BCD80A
:10032C0083E74246202300219B1A00220091019270
:10033C000122DA40019286E7424620239B1A2A00CA
:10034C0046469A402300F340444613432A00E240B9
:10035C001C005B461500002BD4DA42462F002023EC
:10036C00260097409B1ADE403B003343CDE7C04646
:10037C007047C04610B5002903D100F007F82030B3
:10038C0002E0080000F002F810BDC0461C21012359
:10039C001B04984201D3000C10391B0A984201D35C
:1003AC00000A08391B09984201D30009043902A23A
:1003BC00105C40187047C0460403020201010101A1
:1003CC00000000000000000070B50C4D0C4E761BB8
:1003DC00B61005D0002408CD01349847A642FAD1B6
:1003EC0001F038F9074D084E761BB61005D00024E5
:1003FC0008CD01349847A642FAD170BD901600087A
:10040C00901600089016000894160008F0B5050028
:10041C00830749D0541E002A45D003000326CAB2D4
:10042C0002E00135013C3ED301332A703342F8D14E
:10043C00032C30D9FF220A40150215432A04154318
:10044C000F2C34D92700103F3F093E01B4461E0043
:10045C001A0010366644156055609560D5601032F0
:10046C00B242F8D101373F01DB190F270C2227408C
:10047C0022403C00002A0ED03E1FB608B400A44611
:10048C001A001C1D644420C2A242FCD10324013674
:10049C00B6009B193C40002C05D0C9B21C19197030
:1004AC0001339C42FBD1F0BD03001400C0E72700D0
:1004BC00E2E7C04610B501220E211046074CA047BA
:1004CC0001220F211046A047012200211046A0470F
:1004DC00012211461046A04710BD00BFF10C0008C8
:1004EC0010B582B00F4B1B68ADF804301B0C8DF8A7
:1004FC000630019901200C4CA0470F238DF80430D5
:10050C0001990120A04700238DF8043001990120A6
:10051C00A04701208DF804000199A047034B984790
:10052C0002B010BD78160008210C0008BD080008A8
:10053C0008B5094B9847094B9847002203E0013353
:10054C00FE2BFCD90132B2F57A6F01D20023F7E70A
:10055C00034B9847002008BDED040008C1040008B7
:10056C00E5080008034B01221A70034B00221A60A5
:10057C009A737047B802002000000020024B034A17
:10058C00DA60DB68FEE700BF00ED00E00400FA056E
:10059C0008B5036883F308884368984708BD0000D2
:1005AC0010B5134B98470024204601E0114B984797
:1005BC00114B1B78A3F1030C644511DA0023184688
:1005CC00032BF3D86445F1DA0B4A125DC3F1030136
:1005DC00C9008A4010430133DBB20134E4B2EFE7C7
:1005EC00054A52F80C30834214BF0020012010BD84
:1005FC00E5090008D9090008BC02002008B5012152
:10060C000148024B984708BD000000202D1300083C
:10061C0010B50446034B984721460348034B9847B3
:10062C0010BD00BF09060008000000202D130008B3
:10063C0000B583B00B4B93F8FD208DF8042093F894
:10064C00FE208DF8052093F8FF308DF8063003203E
:10065C00054B9847032201A90448054B984703B062
:10066C005DF804FB007F00081D0600080000002058
:10067C007113000800B583B0084B93E80300009099
:10068C00ADF804100620064B98470622694605482B
:10069C00054B984703B05DF804FB00BF80160008BB
:1006AC001D060008000000207113000808B50C207E
:1006BC00034B98470C2203490348044B984708BD49
:1006CC001D060008E8F7FF1F00000020711300084A
:1006DC0008B50020014B984708BD00BF1D06000857
:1006EC0008B50020014B9847014B98471D060008A0
:1006FC008905000808B502210148024B984708BD3E
:10070C00000000202D13000810B50E480E4B984722
:10071C000E4B1870012406E00A480B4B98470B4B04
:10072C0018550134E4B2094B1B78A342F4D2084BA0
:10073C009847012801D1002010BD064B984707208F
:10074C00FAE700BF0000002091130008BC02002053
:10075C00AD0500080107000810B5094BD3F802409D
:10076C0004F17843013B4FF6FE72934205D8054BDA
:10077C0098472046044B984710BD044B9847FBE71D
:10078C00BC020020090600089D05000801070008AE
:10079C0008B5184B5B78013B082B28D8DFE803F031
:1007AC00090D051115191D212300134B9847002025
:1007BC0008BD124B98470020FAE7114B98470020D0
:1007CC00F6E7104B98470020F2E70F4B98470020B4
:1007DC00EEE70E4B98470020EAE70D4B98470020B8
:1007EC00E6E70C4B98470C4B98470020E0E70820B5
:1007FC00DEE700BFBC0200203D06000881060008B1
:10080C00B9060008110000208D00002065070008C3
:10081C00DD060008ED0600084D00002010B50E485E
:10082C000E4B98470E4B1870012406E00A480B4BF0
:10083C0098470B4B18550134E4B2094B1B78A34273
:10084C00F4D2084B9847012803D0074B9847002057
:10085C0010BD064B9847FBE70000002091130008E1
:10086C00BC020020AD050008010700089D07000828
:10087C0010B50A4B98470020094C03E054F8040BC0
:10088C00084B9847084B9C42F8D9084BD3F8E03FEB
:10089C00834201D0002010BD0120FCE7E5090008CF
:1008AC0000800008D9090008FFFF0008007000084C
:1008BC0010B5054C2046054B98472046044B9847ED
:1008CC00044B984710BD00BF00000020DD1000084D
:1008DC001D110008F509000800B583B008E00C4BA9
:1008EC0098470C4B9847FCE70DF106000A4B9847CC
:1008FC000A4B1B78002BF2D1094B98470028F3D0F8
:10090C000848094B98470948094B9847F0E700BF3E
:10091C00BD0800082908000871050008B80200206D
:10092C007D08000800000020DD1000080080000891
:10093C009D050008002103E00B4B5B58435004312C
:10094C000A480B4B42189A42F6D30A4A02E000239B
:10095C0042F8043B084B9A42F9D300F011F8FFF728
:10096C0033FDFFF7E5FD70479816000800000020E6
:10097C009C0200209C02002004040020FEE70000E2
:10098C000F4B1A6842F001021A6059680D4A0A406E
:10099C005A601A6822F0847222F480321A601A6843
:1009AC0022F480221A605A6822F4FE025A604FF434
:1009BC001F029A60044B4FF000629A60704700BFB0
:1009CC00001002400000FFF800ED00E0014B186041
:1009DC001868704700300240024A936843F00103E4
:1009EC00936070470030024008B501210620024B8D
:1009FC009847024B984708BD490F0008E5090008C5
:100A0C0008B5044B1B689847034A536943F001032C
:100A1C00536108BDBC0300200004014008B5044B21
:100A2C005B689847034A536943F00203536108BD5E
:100A3C00BC0300200004014008B5044B9B68984798
:100A4C00034A536943F00403536108BDBC030020FF
:100A5C000004014008B5044BDB689847034A53690E
:100A6C0043F00803536108BDBC030020000401409F
:100A7C0008B5044B1B699847034A536943F01003AC
:100A8C00536108BDBC0300200004014008B5214B94
:100A9C005B6913F0200F07D01F4B5B6998471D4A09
:100AAC00536943F0200353611A4B5B6913F0400FF9
:100ABC0007D0194B9B699847164A536943F040037A
:100ACC005361144B5B6913F0800F07D0124BDB6939
:100ADC009847104A536943F0800353610D4B5B698F
:100AEC0013F4807F07D00C4B1B6A9847094A536953
:100AFC0043F480735361074B5B6913F4007F07D099
:100B0C00054B5B6A9847034A536943F4007353617E
:100B1C0008BD00BF00040140BC03002008B5214BF8
:100B2C005B6913F4806F07D01F4B5B6998471D4AB4
:100B3C00536943F4806353611A4B5B6913F4805F10
:100B4C0007D0194B9B699847164A536943F4805355
:100B5C005361144B5B6913F4005F07D0124BDB69D4
:100B6C009847104A536943F4005353610D4B5B692A
:100B7C0013F4804F07D00C4B1B6A9847094A5369F2
:100B8C0043F480435361074B5B6913F4004F07D068
:100B9C00054B5B6A9847034A536943F4004353611E
:100BAC0008BD00BF00040140BC030020024A1369C9
:100BBC0043F080031361704700200240064B074A44
:100BCC005A6002F188325A601B6913F0800F01D110
:100BDC000020704701207047002002402301674528
:100BEC000B4A136943F0010313610180084BDB6866
:100BFC0013F0010FFAD103889BB28B4206D001206F
:100C0C00034B1A696FF300021A6170470020F7E773
:100C1C000020024000B583B0019103283BD8DFE8E7
:100C2C0000F002282E3401212220294B9847294913
:100C3C009DF80430072B30D80A469DF805300F2B51
:100C4C0030D0082B3BD010689DF8043099000F234E
:100C5C008B4020EA0303136010689DF806309DF862
:100C6C0005C043EA0C038B400343136003B05DF8EB
:100C7C0004FB01212320164B98471749D8E7012183
:100C8C002420134B98471549D2E701212520104BFE
:100C9C0098471349CCE70021CAE7083B8DF804308C
:100CAC000A1DCAE7CB689DF804C0012000FA0CF0BD
:100CBC0023EA0003CB6008238DF80530C3E7CB682B
:100CCC009DF804C0012000FA0CF00343CB60BAE796
:100CDC00490F000800080140000C014000100140C1
:100CEC0000140140032803D8DFE800F00A040608CA
:100CFC00002006E0094804E0094802E0094800E049
:100D0C000948012A05D01031012303FA01F10161D0
:100D1C007047012303FA01F1F9E700BF000C014011
:100D2C0000100140001401400008014010B40129DA
:100D3C000ED043090D4C203354F8232000F01F0033
:100D4C00012101FA00F0104344F8230010BC704755
:100D5C004409064951F8243000F01F00012202FA20
:100D6C0000F0184341F82400F0E700BF00E100E078
:100D7C0038B5384CE26AC2F303120132002336480C
:100D8C000021364DA84703468C46E26AC2F3032283
:100D9C00073A082A0DD8DFE802F0050D1726313F77
:100DAC000C4B5000C90041EA5371DB00181841EBA1
:100DBC000C0138BD890041EA93719B00181841EB76
:100DCC000C0100184941F4E7031841EB01021B1810
:100DDC0042EB010C4FEA8C0C4CEA937C9B00181AEA
:100DEC006CEB0101E5E7021841EB0103121843EB30
:100DFC0001039B00900043EA9271DAE7021841EB81
:100E0C000103121843EB01039B0043EA9273920017
:100E1C00101843EB0101CCE74FEAC10C4CEA507CB3
:100E2C00C300181A6CEB0103001843EB0301C0E775
:100E3C000901180141EA1371BBE7890041EA93717A
:100E4C009B001B1841EB0C018900980041EA93713F
:100E5C00AFE700BF00100240001BB700A50100085F
:100E6C0010B5314B5B6813F4803F20D02E4BDB6AFE
:100E7C0013F4803F18D12D4800212B4BDA6A02F075
:100E8C000F02013200232A4CA047274B5B68C3F3A7
:100E9C008343023B0B2B11D8DFE803F00C11192212
:100EAC002A2F101010101037224B9847E5E72248D4
:100EBC000021EAE7890041EA9071800010BD8A00A8
:100ECC0042EA90728300181841EB0201F6E703180E
:100EDC0041EB0102181841EB020100184941EDE702
:100EEC00CA0042EA5072C300181A62EB0101E5E72E
:100EFC00C90041EA5071C000E0E7CA0042EA5072F2
:100F0C00C300181841EB0201D8E78C0144EA906445
:100F1C00830118184FF00A024FF0000341EB040153
:100F2C00034CA047CAE700BF00100240001BB700EB
:100F3C00A50100087D0D000800093D00012906D01F
:100F4C004309012B2FD0022B37D013B37047430921
:100F5C00012B0CD0022B13D0002BF7D11C4A536958
:100F6C0000F01F0101208840184350617047184A57
:100F7C00936900F01F01012088401843906170476D
:100F8C00134AD36900F01F01012088401843D06137
:100F9C0070470F4A536900F01F010120884023EA73
:100FAC000000506170470A4A936900F01F0101204C
:100FBC00884023EA0000906170470549CB6900F036
:100FCC001F00012202FA00F023EA0000C861BDE70D
:100FDC000010024008B50A4B5B6803F00303012BB9
:100FEC000BD0022B06D013B10020014608BD0548DA
:100FFC000021FBE7044B9847F8E704480021F5E78C
:10100C000010024000127A006D0E0008001BB700A1
:10101C0008B50D4B98470D4B5B6813F0800F12D041
:10102C000A4B5B68C3F3021303F1010CC3F11F02FB
:10103C001F3B20FA0CF001FA02F2104321FA03F3E1
:10104C00184321FA0CF108BDE10F00080010024012
:10105C0008B50D4B98470D4B5B6813F4806F12D09D
:10106C000A4B5B68C3F3012303F1010CC3F11F02AC
:10107C001F3B20FA0CF001FA02F2104321FA03F3A1
:10108C00184321FA0CF108BD1D1000080010024095
:10109C0008B50D4B98470D4B5B6813F4005F12D0ED
:1010AC000A4B5B68C3F3C12303F1010CC3F11F02AC
:1010BC001F3B20FA0CF001FA02F2104321FA03F361
:1010CC00184321FA0CF108BD1D1000080010024055
:1010DC000379262B11D0272B11D0252B0BD00023D5
:1010EC00DA686FF34D32DA600022DA601A615A6105
:1010FC009A601A607047034BF2E7034BF0E7034B1F
:10110C00EEE700BF003801400044004000480040BA
:10111C002DE9F04F83B00546764B1B68ADF80430D3
:10112C001B0C8DF806300379262B00F0AB80272B97
:10113C0000F0BA80252B00F092800026374634460A
:10114C004FF00C0B4FF00B0A4FF00A080923B14675
:10115C008DF8043001994846674B9847EB79002B82
:10116C0040F0B5808DF804804FF000088DF80680B3
:10117C0004238DF80530019948465F4B9847E36886
:10118C0043F40053E3602A7AE36862F30C33E360C0
:10119C00236923F440536A7A43EA02332361E368F8
:1011AC0023F00C03AA7943EA8203E360E36823F497
:1011BC00C0636A7943EA4223E360EA79E36862F345
:1011CC000823E360EA79E36862F34923E360B0192A
:1011DC0047EB0701801947EB0101C90041EA507147
:1011EC00C0008019D5F80A20DFF810914FEA82026E
:1011FC00434647EB0101C84782460F466422002351
:10120C00C84706016422002350463946C847114698
:10121C009F0019220023880047EA9171C8470643B2
:10122C00A3681B0C1B04B6B23343A3602B79253B7C
:10123C002968334A42F82310236868F38613236025
:10124C00AB7B2BB1E268012101FA03F31343E3609A
:10125C00012128792B4B984703B0BDE8F08F2A4B1E
:10126C00984706460F4601212E20284B9847284CBC
:10127C004FF00C0B4FF00B0A4FF00A0809234FF0FC
:10128C00000965E7234B984706460F46012151207C
:10129C001E4B9847204C4FF0010B4FF0000A4FF0BB
:1012AC0003080223D14653E71A4B984706460F46CC
:1012BC0001215220154B9847184C4FF00E0B4FF054
:1012CC000D0A4FF00B080A234FF0010940E78DF887
:1012DC0004B001994846DFF820B0D84700238DF8B8
:1012EC00063004238DF805308DF804A0019948468A
:1012FC00D84737E77C160008210C0008A501000828
:10130C00F8030020390D00089D100008490F000853
:10131C00003801405D1000080044004000480040C7
:10132C000379262B11D0272B11D0252B0BD0002283
:10133C00136813F0800FFBD0037A53B140F2FF1304
:10134C00194051607047044AF2E7044AF0E7044A36
:10135C00EEE7FF23F4E700BF0038014000440040F3
:10136C000048004070B506460D46144605E0013CA9
:10137C00E4B2295D3046024B9847002CF7D170BD82
:10138C002D1300080379262B15D0272B15D0252BD0
:10139C000FD00022136813F0200FFBD0037A012B1F
:1013AC000DD0012B12D0BBB94179A9B95068C0B28C
:1013BC0070470F4AEEE70F4AECE70F4AEAE741792C
:1013CC000029EED15068C0F308007047417900291C
:1013DC00E9D05068C0B270472BB943792BB1506833
:1013EC0000F07F007047002070470020704700BF5E
:1013FC0000380140004400400048004000B583B074
:10140C000023ADF806302F4BDB6813F0200F4BD0C8
:10141C002C4B1B6813F0200F46D02A4BDB6813F4BF
:10142C00805F19D1274BDB6813F4805F20D1254BEB
:10143C00DB6813F4805F26D1224BDB6813F4C06F9A
:10144C0021D1204B5B68DBB2ADF806301E4B1B681C
:10145C000DF10600984731E01A4BDB6813F4C06FAE
:10146C00E0D1184B5B68C3F30803ADF80630EDE729
:10147C00144BDB6813F4C06FD9D0124B5B68DBB232
:10148C00ADF80630E2E70F4BDB6813F4805FDDD17B
:10149C000C4BDB6813F4C06FD8D00A4B5B6803F0BD
:1014AC007F03ADF80630D1E7064BDB6813F0400F35
:1014BC0004D0054B1B680DF10600984703B05DF88E
:1014CC0004FB00BF00380140F803002000B583B0D6
:1014DC000023ADF806302C4BDB6813F0200F48D0FE
:1014EC00294BDB6813F4805F1BD1274BDB6813F4AB
:1014FC00805F22D1244BDB6813F4805F28D1224B10
:10150C00DB6813F4C06F23D11F4B5B68DBB2ADF803
:10151C0006301E4B1B680DF10600984703B05DF8B2
:10152C0004FB194BDB6813F4C06FDED1164B5B6800
:10153C00C3F30803ADF80630EBE7134BDB6813F489
:10154C00C06FD7D0104B5B68DBB2ADF80630E0E76C
:10155C000D4BDB6813F4805FDBD10B4BDB6813F4B2
:10156C00C06FD6D0084B5B6803F07F03ADF8063034
:10157C00CFE7054BDB6813F0400FCFD0034B1B6854
:10158C000DF106009847C9E700440040F80300201D
:10159C0000B583B00023ADF806302C4BDB6813F09C
:1015AC00200F48D0294BDB6813F4805F1BD1274BED
:1015BC00DB6813F4805F22D1244BDB6813F4805F6B
:1015CC0028D1224BDB6813F4C06F23D11F4B5B680F
:1015DC00DBB2ADF806301E4B1B680DF106009847C8
:1015EC0003B05DF804FB194BDB6813F4C06FDED15C
:1015FC00164B5B68C3F30803ADF80630EBE7134BEF
:10160C00DB6813F4C06FD7D0104B5B68DBB2ADF85E
:10161C000630E0E70D4BDB6813F4805FDBD10B4B3E
:10162C00DB6813F4C06FD6D0084B5B6803F07F0304
:10163C00ADF80630CFE7054BDB6813F0400FCFD089
:10164C00034B1B680DF106009847C9E700480040A2
:10165C00F8030020F8B5C046F8BC08BC9E4670479D
:0C166C00F8B5C046F8BC08BC9E467047AC
:101678000E0001000908010001020304050600002C
:081688005CEBFF7F0100000094
:0416900081010008CC
:0416940055010008F4
:101698007105000825000300000000C201000500D4
:1016A80008B50A4B98781E2804D9D97893F90330DD
:1016B800002B02DA064B984708BD064B984710B92D
:1016C800054B9847F8E7024B9847F5E7BC0200201E
:1016D80001070008D90100200906000808B50B4BCE
:1016E800D3F80200D3F8061000F17843B3F5803F31
:1016F80008D2074B984710B9064B984704E0064BA9
:10170800984701E0044B984708BD00BFBC02002081
:101718006102002009060008010700082DE9F047CA
:10172800ADF5806D304BDF7893F802800021009191
:101738004FF47F7201A82D4B9847FA2107FB01F15E
:10174800891208F1FF300131C0B2294B98470028AF
:1017580041D18146274B98474E464FF0000A31E069
:10176800244B9847012409E069464046224B984794
:10177800D0B14FF006090134E4B2AA4621461A4B0B
:101788001B78DA1E94421BDA0AF10105164A125D2B
:101798000DF80A20B5F5806FE6D07A1E9642EAD198
:1017A800043B8B42E7D1DFE708F101085FFA88F8CC
:1017B8004FF48062FF2168460C4B98470025DAE712
:1017C8000136F6B2BE420AD80C4B98470028C7D05B
:1017D8000B4B9847F6E70A4B98474FF000094846E5
:1017E8000DF5806DBDE8F087BC02002019040008E3
:1017F800D901002009060008110200201507000879
:1018080001070008174BDB6813F0010FFAD1154BDD
:101818001A6942F002021A6158611A6942F04002DC
:101828001A61104BDB6813F0010FFAD10D4BDB681E
:1018380013F0040F04D10B4BDB6813F0100F0AD020
:10184800084BDA6842F00402DA60DA6842F0100203
:10185800DA6001207047034B1A696FF341021A617D
:10186800002070470020024070B50C4600F500309B
:101878008602094B9847054607E03046FFF7C2FF46
:10188800054606F58066013CE4B20CB1002DF4D0A3
:10189800024B9847284670BDC90B0008B90B0008D1
:1018A800F8B50F4600F5003086020E4B98470546FE
:1018B8000024FF2C12D88DB937F8241030460A4B73
:1018C8009847054650B957F82410090CB01C064B28
:1018D800984705460134A4B20436EAE7034B984713
:1018E8002846F8BDC90B0008ED0B0008B90B000825
:1018F80070B504460D460A4B984720B10026094B9F
:101908009847304670BD0646A9B22046064B984710
:101918000028F4D1290CA01C034B98470646EEE793
:0C192800C90B0008B90B0008ED0B00080B
:047FE000FFFFFFFFA1
:047FFC0000FAFAFA93
:0400000508000941A5
:00000001FF
